:101186006F6B0D0A00C7EBCBB5B3F6D2BBBCB6BFCF
:06119600DAC1EE0D0A00B3
:0611C200012500012200DE
:100F6000E4F50912115212116E120FED1210C48025
:100F70002C7825E61460FA24F1601824DF60F2244E
:100F800031702078257601120F11EF70E478257604
:100F90003180DE1211E37827EFF61207EAE47825B4
:090FA000F680CEE47825F680C845
:10115200B2C21211AAB2C21211AAB2C21211AAB218
:0C116200C21211AAB2C21211AAB2C2221B
:10116E007580FF7590FF75A0FF75B0FF75C0FFC24B
:08117E00C3D289D2A8D2AF222E
:0A11B70000007F057E49DEFEDFFC2C
:0111C100220B
:081111008F148E138D128C1156
:10111900E4F515F516F517F518781174FF120AB3E9
:0B112900EC4D4E4F60051211B780EE38
:011134002298
:0C11AA007F117ED07D1BDDFEDEFCDFFA35
:0111B6002216
:0300030002102EBA
:10102E00C0E0C0F0C083C082C0D075D000C000C088
:10103E0001C002C003C004C005C006C007120CFEEA
:10104E00D007D006D005D004D003D002D001D000F6
:0B105E00D0D0D082D083D0F0D0E032A0
:10113500750D55750E55750F0275100775110D75E1
:0D114500120A7B007A00790D7D060210EB86
:041069007D017C0089
:10106D00751955751A55751B05751C068F1D8D1E29
:10107D008C1F75200D75210A7B007A0079197D0969
:0E108D001210EBB2C21211AA1211AA0211AA7D
:0207EA008F0A74
:1007EC00E4F50BF50CE50A7010752201C2C27BFF13
:1007FC007A1179867D04020A86E52264016003027F
:10080C000A7EF522D2C2E50A120AD1085401085711
:10081C000208800308A90408D60509030609300755
:10082C00095D08098A0909931009C01109ED120A1A
:10083C0019130A45140A4D150A55160A5D170A654F
:10084C00180A6D1900000A750211357F2112106902
:10085C00E4F50BF50C1211AA050CE50C7002050B56
:10086C00C3940AE50B6480948040EA7D037C007F8E
:10087C0001020A7B7F22121069E4F50BF50C1211B0
:10088C00AA050CE50C7002050BC3940AE50B6480F9
:10089C00948040EA7D037C007F02020A7B7D017C10
:1008AC00007F2312106DE4F50BF50C1211AA050C48
:1008BC00E50C7002050BC3940AE50B648094804030
:1008CC00EA7D027C007F03020A7B7D017C007F2491
:1008DC0012106DE4F50BF50C1211AA050CE50C7059
:1008EC0002050BC3940AE50B6480948040EA7D02F8
:1008FC007C007F04020A7B7D017C007F2512106D39
:10090C00E4F50BF50C1211AA050CE50C7002050BA5
:10091C00C3940AE50B6480948040EA7D037C007FDD
:10092C0007020A7B7D017C007F2612106DE4F50B1B
:10093C00F50C1211AA050CE50C7002050BC3940AF8
:10094C00E50B6480948040EA7D037C007F08020AFA
:10095C007B7D017C007F2B12106DE4F50BF50C12E6
:10096C0011AA050CE50C7002050BC3940CE50B6485
:10097C0080948040EA7D027C007F09020A7B7D0125
:10098C007C007F2C020A7B7D017C007F2D12106D78
:10099C00E4F50BF50C1211AA050CE50C7002050B15
:1009AC00C3940DE50B6480948040EA7D017C007F4C
:1009BC005C020A7B7D017C007F2E12106DE4F50B2E
:1009CC00F50C1211AA050CE50C7002050BC394145E
:1009DC00E50B6480948040EA7D017C007F5B020A19
:1009EC007B7D017C007F2F12106DE4F50BF50C1252
:1009FC0011AA050CE50C7002050BC39410E50B64F1
:100A0C0080948040EA7D017C007F6180627D017C66
:100A1C00007F3012106DE4F50BF50C1211AA050CC9
:100A2C00E50C7002050BC39414E50B6480948040B4
:100A3C00EA7D017C007F6280367D017C007F318005
:100A4C002E7D017C007F6380267D017C007F2680CB
:100A5C001E7D017C007F2A80167D017C007F278013
:100A6C000E7D017C007F6280067D017C007F25026B
:0D0A7C00106D7BFF7A11798B7D101210EB4D
:010A8900224A
:100006007869616F206865690000000000000000E3
:1000160000000000000000000000000000000000DA
:1000260000000000000000000000000000000000CA
:1000360000000000000000000000000000000000BA
:1000460000000000000000000000000000000000AA
:10005600000000000000000000000000000000009A
:100066000000000074696E670000000000000000D8
:10007600000000000000000000000000000000007A
:10008600000000000000000000000000000000006A
:10009600000000000000000000000000000000005A
:1000A600000000000000000000000000000000004A
:1000B600000000000000000000000000000000003A
:1000C60000000000000000007169616E206A696E20
:1000D600000000000000000000000000000000001A
:1000E600000000000000000000000000000000000A
:1000F60000000000000000000000000000000000FA
:1001060000000000000000000000000000000000E9
:1001160000000000000000000000000000000000D9
:10012600000000000000000000000000686F75205D
:100136007475690000000000000000000000000067
:1001460000000000000000000000000000000000A9
:100156000000000000000000000000000000000099
:100166000000000000000000000000000000000089
:100176000000000000000000000000000000000079
:100186000000000000000000000000000000000069
:100196007A756F207A6875616E00000000000000B5
:1001A6000000000000000000000000000000000049
:1001B6000000000000000000000000000000000039
:1001C6000000000000000000000000000000000029
:1001D6000000000000000000000000000000000019
:1001E6000000000000000000000000000000000009
:1001F60000000000796F75207A6875616E00000056
:1002060000000000000000000000000000000000E8
:1002160000000000000000000000000000000000D8
:1002260000000000000000000000000000000000C8
:1002360000000000000000000000000000000000B8
:1002460000000000000000000000000000000000A8
:1002560000000000000000007869616E67207A7572
:100266006F207A6F7500000000000000000000009B
:100276000000000000000000000000000000000078
:100286000000000000000000000000000000000068
:100296000000000000000000000000000000000058
:1002A6000000000000000000000000000000000048
:1002B6000000000000000000000000007869616E88
:1002C6006720796F75207A6F7500000000000000C6
:1002D6000000000000000000000000000000000018
:1002E6000000000000000000000000000000000008
:1002F60000000000000000000000000000000000F8
:1003060000000000000000000000000000000000E7
:1003160000000000000000000000000000000000D7
:100326006E61206E6920676569206461206A696173
:10033600207469616F2067652077750000000000F2
:1003460000000000000000000000000000000000A7
:100356000000000000000000000000000000000097
:100366000000000000000000000000000000000087
:100376000000000000000000000000000000000077
:10038600000000006E6920687569206368616E6709
:10039600206765206D61000000000000000000007D
:1003A6000000000000000000000000000000000047
:1003B6000000000000000000000000000000000037
:1003C6000000000000000000000000000000000027
:1003D6000000000000000000000000000000000017
:1003E60000000000000000006368616E6720796904
:1003F6002073686F75207869616F2070696E672059
:1004060067756F000000000000000000000000009B
:1004160000000000000000000000000000000000D6
:1004260000000000000000000000000000000000C6
:1004360000000000000000000000000000000000B6
:100446000000000000000000000000006368616E0C
:10045600672079692073686F75206E69206B7561F6
:100466006920687569206C61692000000000000041
:100476000000000000000000000000000000000076
:100486000000000000000000000000000000000066
:100496000000000000000000000000000000000056
:1004A6000000000000000000000000000000000046
:1004B6006E61206E69206368616E672079692073BA
:1004C600686F7520736869206E69616E00000000B0
:1004D6000000000000000000000000000000000016
:1004E6000000000000000000000000000000000006
:1004F60000000000000000000000000000000000F6
:1005060000000000000000000000000000000000E5
:10051600000000006368616E672079692073686F68
:100526007520776F206169206E69207A686F6E6723
:100536002067756F20676569206461206A6961209C
:1005460074696E672074696E670000000000000021
:100556000000000000000000000000000000000095
:100566000000000000000000000000000000000085
:10057600000000000000000067656E206461206ACC
:100586006961206461206765207A68616F206875FB
:100596000000000000000000000000000000000055
:1005A6000000000000000000000000000000000045
:1005B6000000000000000000000000000000000035
:1005C6000000000000000000000000000000000025
:1005D6000000000000000000000000006C69207AA6
:1005E60068656E6700000000000000000000000063
:1005F60000000000000000000000000000000000F5
:1006060000000000000000000000000000000000E4
:1006160000000000000000000000000000000000D4
:1006260000000000000000000000000000000000C4
:1006360000000000000000000000000000000000B4
:100646006E69206A69616F207368656E206D65202A
:100656006D696E67207A69000000000000000000E6
:100666000000000000000000000000000000000084
:100676000000000000000000000000000000000074
:100686000000000000000000000000000000000064
:100696000000000000000000000000000000000054
:1006A600000000006E6920687569207469616F201A
:1006B6007775206D6100000000000000000000005A
:1006C6000000000000000000000000000000000024
:1006D6000000000000000000000000000000000014
:1006E6000000000000000000000000000000000004
:1006F60000000000000000000000000000000000F4
:1007060000000000000000006A696E207469616ED6
:10071600206465207469616E207169207A656E2097
:100726006D652079616E6700000000000000000022
:1007360000000000000000000000000000000000B3
:1007460000000000000000000000000000000000A3
:100756000000000000000000000000000000000093
:10076600000000000000000000000000676569202E
:100776006461206A6961206368616E672073686FCF
:100786007520676500000000000000000000000002
:100796000000000000000000000000000000000053
:1007A6000000000000000000000000000000000043
:1007B6000000000000000000000000000000000033
:1007C6000000000000000000000000000000000023
:1007D6000001020304050607080910111213141577
:0407E60016171819B1
:100FED00D2B57F057E007D007C00121111C2B57F48
:100FFD00057E007D007C00121111D2B57F057E00AB
:10100D007D007C00121111C2A17F057E007D007C48
:10101D0000121111D2A17F057E007D007C0002110E
:01102D0011B1
:100C62007F061211D87D357F171211CD7F0A7E00C3
:100C72007D007C001211117F061211D87D037F893D
:100C82001211CD7F057E007D007C001211117D4383
:100C92007FCF1211CD7F057E007D007C00121111E5
:100CA2007D027FCB1211CD7D0A7F111211CDE4FDA1
:100CB2007F1E1211CD7D3F7F191211CD7D487F1B02
:100CC2001211CD7D1F7F1D1211CD7F0A7E007D0086
:100CD2007C001211117D047FCD1211CD7F057E00A3
:100CE2007D007C00121111E4FD7FB91211CD7D4F00
:0C0CF2007FCF1211CD7DFF7F6F0211CD6E
:100EB200120C62E4FD7FBD1211CD7D487F17121125
:100EC200CD7F0A7E007D007C001211117D807F3C67
:100ED2001211CD7D077F3E1211CD7DFF7F38121199
:100EE200CD7D077F3A1211CDE4FD7F401211CD7DF9
:100EF200087F421211CDE4FD7F441211CD7D087F9F
:0F0F0200461211CD7F017E007D007C000211118F
:100CFE00E4F508C2A87F2B1211D87826A607E4FDCA
:100D0E007F291211CDE4FD7F021211CD7826E63037
:100D1E00E42D7FB21211D8EF642170237FBF121120
:100D2E00D8BF351B7FBA1211D88F08E508D39400AF
:100D3E00400DE508D394045006782576108004788B
:100D4E00257611E4FD7F2B1211CDE4FD7F1C1211CF
:100D5E00CDE4FD7F291211CDE4FD7F021211CDE409
:100D6E00FD7F2B1211CDE4FD7FBA1211CDE4FD7F74
:100D7E00BC1211CD7D017F081211CDE4FD7F08124A
:040D8E0011CDD2A809
:010D9200223E
:100F1100E4F50AF50BF50A1211E97F327E007D0036
:100F21007C00121111120BC5EF700280117F0A7E35
:100F3100007D007C00121111120D93EF7010120F41
:100F4100ED7F327E007D007C001211118005750B52
:0E0F5100018009050AE50AC3940540BBAF0BF9
:010F5F00226F
:10109B00E4F510F50F7FB21211D8BF2105751001C1
:1010AB0080147F0A7E007D007C00121111050FE574
:0810BB000FC3940A40DFAF10DF
:0110C300220A
:0311E900020EB241
:100D9300C2A87D657F351211CD7D097F1C1211CD4F
:100DA3007D207FBD1211CD7D017F081211CD7F0102
:100DB3007E007D007C00121111E4FD7F081211CD2D
:100DC3007F017E007D007C0012111112109BEF70D9
:100DD30002FF227D0B7F1C1211CD7DFF7FB212110A
:100DE300CD7F017E007D007C001211117D067F37CF
:100DF3001211CD7F017E007D007C001211117D0652
:100E03007F371211CD7F057E007D007C001211110A
:100E13007D107F291211CDE4FD7FBD1211CDD2A823
:030E23007F01222A
:100BC500750D01E4F50C12109BEF7005F50D020C87
:100BD5005FE50C9007D693FD7FC11211CDE4FD7F33
:100BE500C31211CD7D047F081211CD7F017E007DDA
:100BF500007C00121111E4FD7F081211CD7F017EEA
:100C0500007D007C00121111E4F50E75F064E50C11
:100C1500A42406F582E5F03400F583E582250EF57A
:100C250082E43583F583E493FD600E7F051211CDD3
:100C3500050EE50EC3946440D2AD0E7FB91211CDF9
:100C45007DFF7FB21211CD7D047F371211CD050CCA
:0C0C5500E50CC394145003020BCBAF0D50
:010C61002270
:0611E3007FC51211D822A5
:0B11CD00908100EFF0908000EDF02218
:0B11D800908100EFF0908000E0FF220B
:0411C8000223258059
:1010C400759850758920AE23AF24AB07AA06E4F9BE
:1010D400F8FF7EE1FDFC120FA9120AA38F8B8F8DFE
:0710E400D28ED2ACD2AF2284
:0E119C00C2ACC2998F993099FDC299D2AC2293
:0610EB008B138A14891525
:1010F100E4FEEEC39D5018AB130515E515AA147057
:0F11010002051414F9120A8AFF12119C0E80E3E2
:0111100022BC
:03000000020E26C7
:0C0E2600787FE4F6D8FD758127020E6D80
:100A8A00BB010689828A83E0225002E722BBFE026A
:090A9A00E32289828A83E493229D
:100FA900C2D5E830E70FB2D5E4C39BFBE49AFAE473
:100FB90099F9E498F8EC30E717B2D5120FDF120B64
:100FC90033E4C39BFBE49AFAE499F9E498F88003C3
:100FD900120B3330D50DE4C39FFFE49EFEE49DFD63
:040FE900E49CFC2266
:0E0AA300C3E49FFFE49EFEE49DFDE49CFC2264
:100AB1007401FF3395E0FEFDFC080808E6CF2FF630
:100AC10018E6CE3EF618E6CD3DF618E6CC3CF62209
:100AD100D083D082F8E4937012740193700DA3A3B4
:100AE10093F8740193F5828883E4737402936860C8
:060AF100EFA3A3A380DFC8
:100E3200020F60E493A3F8E493A34003F68001F267
:100E420008DFF48029E493A3F85407240CC8C333C1
:100E5200C4540F4420C8834004F456800146F6DF90
:100E6200E4800B01020408102040809011C2E47E4D
:100E7200019360BCA3FF543F30E509541FFEE49385
:100E8200A360010ECF54C025E060A840B8E493A34C
:100E9200FAE493A3F8E493A3C8C582C8CAC583CA77
:100EA200F0A3C8C582C8CAC583CADFE9DEE780BE2F
:0111CC000022
:100AF70075F008758200EF2FFFEE33FECD33CDCCB6
:100B070033CCC58233C5829BED9AEC99E582984038
:100B17000CF582EE9BFEED9AFDEC99FC0FD5F0D615
:100B2700E4CEFBE4CDFAE4CCF9A88222B800C1B93F
:100B37000059BA002DEC8BF084CFCECDFCE5F0CB7D
:100B4700F97818EF2FFFEE33FEED33FDEC33FCEBB6
:100B570033FB10D703994004EB99FB0FD8E5E4F971
:100B6700FA227818EF2FFFEE33FEED33FDEC33FC5E
:100B7700C933C910D7059BE99A4007EC9BFCE99A52
:100B8700F90FD8E0E4C9FAE4CCFB2275F010EF2F97
:100B9700FFEE33FEED33FDCC33CCC833C810D70797
:100BA7009BEC9AE899400AED9BFDEC9AFCE899F8D2
:0E0BB7000FD5F0DAE4CDFBE4CCFAE4C8F92265
:00000001FF
