:020000040800F2
:1000000060BA002079020008BD2200089122000891
:10001000B9220008BD1900085B2D0008000000008F
:100020000000000000000000000000003126000871
:10003000C51D0008000000004523000845270008F2
:10004000930200089302000893020008930200083C
:10005000930200089302000893020008930200082C
:10006000930200089302000893020008930200081C
:10007000930200089302000893020008930200080C
:1000800093020008930200089302000893020008FC
:1000900093020008930200089302000893020008EC
:1000A00093020008930200089302000893020008DC
:1000B00093020008930200089302000893020008CC
:1000C00093020008930200089302000893020008BC
:1000D0009302000871290008F9290008812A000804
:1000E000930200089302000893020008930200089C
:1000F000930200089302000893020008930200088C
:1001000093020008C124000893020008930200082B
:10011000392900089302000893020008A927000863
:10012000930200089302000893020008930200085B
:1001300000F002F800F090F80AA090E8000C824469
:100140008344AAF10107DA4501D100F085F8AFF246
:10015000090EBAE80F0013F0010F18BFFB1A43F0A5
:1001600001031847944A0000B44A0000103A24BF23
:1001700078C878C1FAD8520724BF30C830C144BF0C
:1001800004680C607047000000230024002500264E
:10019000103A28BF78C1FBD8520728BF30C148BFEA
:1001A0000B6070476E2900F0A383702900F0538123
:1001B000662904F00780652904F00480672904F0AB
:1001C00001806129AFF3008003681B0A28BF41F05A
:1001D0008001692900F0C480642900F0C18075297C
:1001E00000F0BE806F2900F08984782900F01F811B
:1001F000E92900F02384E42900F02084F52900F0A7
:100200001D84EF2900F08684F82900F01E81036820
:10021000DB0928BF41F08001632900F0A483732922
:1002200000F0A983E32900F0DF86F32900F0E486DB
:10023000002070471FB500F031FF040000200021AE
:1002400003F0AAFF401C60600020002103F08EFF35
:10025000E0601FBD10B510BD00F0F2FE1146FFF7C3
:10026000E9FF03F06BFA00F0CBFF03B4FFF7F2FFF6
:1002700003BC02F0AAFD0000094880470948004776
:10028000FEE7FEE7FEE7FEE7FEE7FEE7FEE7FEE746
:10029000FEE7FEE704480549054A064B70470000A3
:1002A000492700083101000860B4002060BA00202E
:1002B00060B6002060B60020704700001CB50C46F8
:1002C000064B7B4469460090204600F02AFB04461A
:1002D0000020694600F038FB20461CBD8306000064
:1002E0000FB41CB5084B06AA7B44694600900598DC
:1002F00000F017FB04460020694600F025FB20466D
:100300001CBC5DF814FB00005D06000070B50C46D7
:100310000546012A05D02878800600D5EA69002321
:1003200002E0012305E05B1C934202D2E05C00285E
:10033000F9D1A869E618C01AA861286A1844286289
:10034000284600F043FA04E0D5E9012114F8010B36
:100350009047B442F8D3284600F04EFA70BD000032
:100360002DE9F0410646002410687529314616A58E
:1003700010D000F052FA002802DA404213A507E03C
:1003800031688A0701D512A502E0490704D511A5F5
:10039000012401E000F04AFA00210A2206F12407B4
:1003A00009E0B0FBF2FCB0FBF2F302FB1C003030C2
:1003B00078541846491C0028F3D123462A46304673
:1003C000BDE8F04100F03BBA000000002D00000045
:1003D0002B00000020000000F0B40D460188090544
:1003E00002D5214C7C4402E01F4C7C440E34002199
:1003F00000F1240608E002F00F071209E75D42EA67
:1004000003721B097754491C52EA0307F3D102789F
:100410000023120704D5702D06D009B10223113430
:100420002246F0BC00F00BBA01231034F8E770B597
:1004300004460D462146106800F0F8F902462946A8
:100440002046BDE870400023C6E7D21D22F0070316
:10045000D3E90023C0E70368126843F02003036078
:100460000823C3610023B7E78C4600002DE9F05F45
:10047000894604464FF0000ADFF874B1FB44C0F827
:1004800020A02046E1688847002874D0252806D09F
:10049000D4E901219047206A401C2062F1E7002640
:1004A0005F462046E16888472028054607DB312D56
:1004B00005D2781910F8200C08B10643F1E7B0070F
:1004C00001D526F00406C4F81CA00027C4F818A023
:1004D0002A2D09D0284602F071FC38B304EB8708B6
:1004E000303DC8F8185019E059F8041B204604EBB9
:1004F00087029161E1688847012F054618D1E069BC
:10050000002820DA26F020061DE0D8F8180000EBBD
:10051000800005EB40003038C8F818002046E1683C
:100520008847054602F04AFC0028EED1012F0AD088
:100530002E2D08D12046E16888477F1C0546022FF2
:1005400046F02006C4DBA069002803DA404246F0EA
:100550000106A061F00701D026F010066C2D0BD02B
:10056000682D09D04C2D39D06A2D35D0742D35D059
:100570007A2D33D016E038E0E1682F4620468847D0
:10058000B842054609D16C2F26D04FF48060E1684F
:10059000064320468847054604E06C2F1AD04FF4E6
:1005A000807006430DB3A5F14100192802D820350B
:1005B00046F400664A462946204626604E46FFF726
:1005C000F1FD80B101280BD0F61D26F0070000F1E7
:1005D000080956E74020E4E78020D8E70020D6E766
:1005E00006F104094DE7284652E7206ABDE8F09F6E
:1005F0001C46000030B505460B462A4613F8014B51
:1006000012F8010B08B1A042F8D01CB1002802D0AA
:100610006D1CF1E7284630BD10B5431C02E010F810
:10062000011B71B18107FAD14FF0013202C88C1A57
:100630008C4314EAC211F9D0C01A0A0603D0C01EB6
:1006400010BDC01A10BD0A0401D0801E10BD0902E1
:10065000FCD0401E10BD032A40F2308010F0030C85
:1006600000F0158011F8013BBCF1020F624498BF05
:1006700011F801CB00F8013B38BF11F8013BA2F1A2
:10068000040298BF00F801CB38BF00F8013B11F01D
:10069000030300F02580083AC0F0088051F8043BBD
:1006A000083A51F804CBA0E80810F5E7121D5CBF2A
:1006B00051F8043B40F8043BAFF30080D20724BF5D
:1006C00011F8013B11F801CB48BF11F8012B24BFF1
:1006D00000F8013B00F801CB48BF00F8012B704740
:1006E00010B5203AC0F00B80B1E81850203AA0E8CD
:1006F0001850B1E81850A0E81850BFF4F5AF5FEA01
:10070000027C24BFB1E81850A0E8185044BF18C9B3
:1007100018C0BDE810405FEA827C24BF51F8043B5A
:1007200040F8043B08BF7047D20728BF31F8023BAE
:1007300048BF11F8012B28BF20F8023B48BF00F842
:10074000012B70474FF0013C50F8042B51F8043B4B
:100750009A4221D1A2EB0C03934313EACC1317D195
:1007600050F8042B51F8043B9A4215D1A2EB0C032C
:10077000934313EACC130BD150F8042B51F8043BEC
:100780009A4209D1A2EB0C03934313EACC13DBD0BA
:100790004FF00000704700BFD01A01BAB1FA81F1E2
:1007A00001F0180122FA01F0CB40C1F12001DBB2C7
:1007B000C0B2C01A2CFA01F3D11A914311EAC31145
:1007C000E6D17047704770477047704770B5044670
:1007D00085690068C10601D5302600E02026C007E3
:1007E00007D070BDD4E9012130469047206A401CF3
:1007F00020626D1EF6D570BD70B50446856900781F
:10080000C00707D170BDD4E9012120209047206A9C
:10081000401C20626D1EF6D570BD09684A0501D5E1
:1008200040B27047C905FCD500B2704709684A0557
:1008300001D5C0B27047C905FCD580B270472DE91B
:10084000F0470D4699469246044600F12408016897
:10085000880604D5E06921F01001216000E0012044
:10086000A84201DD471B00E00027A1697A1902EBCD
:100870000900081AA0612078C00602D42046FFF7BC
:10088000A5FF002608E0D4E901211AF806009047E8
:10089000206A401C761C20624E45F4DB2078C0069E
:1008A0000AD52046FFF792FF06E0D4E90121302067
:1008B0009047206A401C2062381EA7F10107F4DC33
:1008C00007E0D4E9012118F805009047206A401C90
:1008D0002062281EA5F10105F3DC2046FFF78CFFFE
:1008E0002078000602D50220BDE8F0870120FBE752
:1008F00011680268006A530501D508700AE0D30543
:1009000001D5088006E0130603D5C217C1E900022D
:1009100000E008600120704701694A1C0261087804
:10092000704700B58FB0CDE901310021059105492F
:100930007944CDE9031011466846FFF797FD0FB0E3
:1009400000BD0000E5FFFFFF0A6802F8010B0A6026
:10095000704710B5436913B1AFF3008001E0FFF7B2
:10096000D5FC012010BD127800F124010A7000228C
:100970004A700122EDE711684FF0FF32E9E700000D
:100980002DE9FF5F15468A460446DFF8AC80F8443F
:100990000027D8E900103E46CDE9001010E03AF8F3
:1009A00016106A4602A800F02BFB411C07D02178E4
:1009B000890603D5E269391891420DD80744761C9F
:1009C0002078800602D5E069B84205DDAE42E6DB5C
:1009D0003AF816000028E2D1A069C01BA0612046A9
:1009E000FFF7F4FED8E90010CDE90010002017E071
:1009F0003AF818106A4602A800F002FBB0F1FF3F77
:100A000081460BD000250DF1080B05E0D4E901214A
:100A10001BF8050090476D1C4D45F7D308F1010008
:100A2000B0428046E4DB206A384420622046FFF76B
:100A3000E3FEBDE8FF9F00001E4100002DE9F041EC
:100A40008046D21D22F007020025D2E90002F529D6
:100A500015A614D0011E72F1000106DA0023D0EBB6
:100A6000030063EB020211A608E0D8F800108B0720
:100A700001D50FA602E0490701D50EA601251146B2
:100A8000002408F1240704E000F052F830323A550F
:100A9000641C50EA0102F7D12B46324621464046FB
:100AA000BDE8F041FFF7CBBE000000002D000000C4
:100AB0002B0000002000000030B4002100F12404CD
:100AC00008E002F00705D208303542EA4372DB083D
:100AD0006554491C52EA0305F3D10468002310A2AF
:100AE000250708D504F020040C4304D0C469012371
:100AF0000CA2641EC46130BCFFF7A1BE10B5044651
:100B000021461068FFF792FE02462046BDE81040DD
:100B10000023D1E7D21D22F00701D1E90023CBE762
:100B200000000000300000000048704700B40020C2
:100B300030B5B0F10A024FEA900E71F100034EEAAF
:100B4000817EB0EB0E0061EB91014FEA101E4EEA80
:100B5000017E10EB0E0041EB11114FEA102E4EEA10
:100B6000016E10EB0E0041EB11214FEA104E4EEAE0
:100B7000014E10EB0E0041EB1141401841F1000114
:100B80004FEAD00040EA41704FEAD10110EB8005F6
:100B90004FEA810444EA907444EB01046D1944EB7C
:100BA0000404521BA3414FF0000348BF0A3200D592
:100BB00030BD401C41F1000130BD70472DE9FF4FB1
:100BC0000C461E464FF0FF378BB0D2E90001DDF82E
:100BD00060800A908A46C1F30A5505B93D46002156
:100BE00008464FF00000BAF1000F00F4400005DAAB
:100BF00000EB80004FF4400101EA50004FEA9059A9
:100C0000B9F1010F00DDB9460A9850EA4A000ED04A
:100C100044F61050A5F2FF3545432F14B8F1000FEC
:100C20001ED07542291E1EDDC9F100021CE0B8F17C
:100C3000010F4FF0000001D0302103E0F24305E046
:100C40002154401CB042FBDB3046002200212154DD
:100C50000B99C1F80880C1E900200FB0BDE8F08F02
:100C6000BD1B6D1CDEE74A4600DA694206A800F0AB
:100C700059FA06AB93E8070003AB83E80700504638
:100C80000A9900F0C6FA8DE80700A0F500501F3859
:100C900000900398002D09DD42F21F014A460844E6
:100CA00003A90390684600F025FD08E0A0F5005078
:100CB0004A461F3803A90390684600F02FFD8DE8CF
:100CC00007000004000C03D04FF0FF30410800E0A3
:100CD0001046B8F1000F03D00022009215461EE026
:100CE000751E05D4FFF724FF303262556D1EF9D50D
:100CF000B3460122084302D000227F1C04E0207882
:100D0000302801D100227F1E002A099786D01DE0DD
:100D1000112D07DAFFF70CFF303262556D1C50EAD7
:100D20000102F5D1084302D00098C8B10EE00021BD
:100D3000681E05E0235C625C63542254401E491C1B
:100D40008142F7DBAB46A81B401E0990002004F847
:100D50000B000B98099AC0F80880C0E9002B7CE7CB
:100D600011264FF0000859E72DE9F04F8846044658
:100D7000D21D22F0070191B0D1E90001CDE90A01AD
:100D800002F008F802460B98C00F01D02D2007E0B2
:100D90002068810701D52B2002E0202101EAC00054
:100DA000032A099001D0072A05DB03464146204665
:100DB00000F078F90BE12078800601D5E06900E0C9
:100DC0000620B8F1650F814606D0B8F1660F18D03D
:100DD000B8F1670F70D131E00020B9F1110F009028
:100DE00001DB112301E009F101030AAA01A90CA802
:100DF000FFF7E4FEDDE90C70002609F101058346EA
:100E000047E001204B4600904FF000470AAA01A995
:100E10000CA8FFF7D3FEDDE90DB00C995D46002666
:100E200010B909F101000D18B9EB050003D4C0F1A8
:100E3000FF3609F10105A5EB09002BE0B9F1010F1F
:100E400001DA4FF001090020B9F1110F0090484676
:100E500001DD112300E003460AAA01A90CA8FFF74F
:100E6000ADFEDDE90C704D46002683462078000774
:100E70000AD4AB4500DA5D4601A8012D04DD411915
:100E800011F8011C302907D04F4502DA17F1040F81
:100E900004DA012082460FE06D1EEEE7002F02DC2F
:100EA000ED1B3E4403E0781CA84200DD7D1CB81B0E
:100EB00000F1010A4FF000472078000703D4AA454B
:100EC00001DB4FF0FF3A0021B7F1004F0DF143086D
:100ED0008DF8431024D002202B23002F01DA7F420B
:100EE0002D230A21021EA0F1010000DC5FB197FB57
:100EF000F1FC97FBF1F201FB1C7C17460CF1300C66
:100F000008F801CDEEE7A8F101000370218809057A
:100F100001D5452100E06521A0F1010800F8011C80
:100F200009980FA9A1EB0807FF1D00B10120411985
:100F300001EBEA70A1693844081A401EA0612078CC
:100F4000C00602D42046FFF741FC099828B1D4E935
:100F500001219047206A401C20622078C00622D5DB
:100F60002046FFF733FC1EE0002E04DBB34502DD14
:100F700001A8805D00E03020D4E901219047206A7B
:100F8000401C2062761CAAF101005FEA000A0AD127
:100F900000F084F8C0680168405CD4E90121904702
:100FA000206A401C2062281EA5F10105DCDC07E058
:100FB000D4E9012118F8010B9047206A401C2062F7
:100FC000381EA7F10107F3DC2046FFF715FC0320CC
:100FD00011B043E610B5436913B1AFF3008001E0EF
:100FE000FFF7CEFC012010BD128800F1240182849D
:100FF0000022C2840122EDE711684FF0FF32E9E7D9
:1010000070B516460C46054600F040F8036893F8A4
:101010000101012806D0FF2C0FD8185D68B101200E
:101020002C7070BDD3F807013246214603F2071336
:1010300003442846BDE8704018474FF0FF3070BDAC
:101040007546FFF771FDAE4605006946534620F030
:101050000700854618B020B5FFF71CF9BDE8204011
:101060004FF000064FF000074FF000084FF0000B64
:1010700021F00701AC46ACE8C009ACE8C009ACE817
:10108000C009ACE8C0098D467047000010B500F0FB
:1010900005F8001D10BD00BF013100000048704779
:1010A00020B400202DE9F0411F46044603260168C4
:1010B000072A01F4006004DB08B116A505E016A5B7
:1010C00003E008B115A500E015A521F0100020608F
:1010D000A069C01EA0610FB1401EA0612046FFF7AD
:1010E00075FB4FB1D4E9012138469047206A401C76
:1010F0002062C01C206206E0206AFAE7D4E90121E0
:1011000015F8010B9047761EF8D22046FFF774FBC6
:10111000BDE8F0814E414E006E616E00494E4600C2
:10112000696E66002DE9F047814616468AB033485D
:1011300078440DC88DE80D0030487844801C03AC1D
:101140000DC884E80D0041F69B300844372190FB20
:10115000F1F290FBF1F5A5F1800501FB12041B3CB7
:1011600002D56442012000E00020DFF890A0804614
:101170000027FA44AAF1BE0A0DE0E00709D0324682
:10118000684607EB47010AEB810100F0C7FA8DE8DA
:10119000070064107F1C002CEFD1184F7F44AC3F38
:1011A00018E0E80714D007EB04100DF1180A90E8D6
:1011B0000E008AE80E00C068F04201D1981908902C
:1011C000324606A903A800F0A9FA03AB83E807009A
:1011D0006D10641C002DE4D132466946B8F1000F51
:1011E00003A802D000F086FA01E000F097FAC9E9FE
:1011F0000001C9F808200AB0BDE8F087003A0000F5
:1012000010B50446AFF300802046BDE81040FFF75C
:101210002CB85FEA400C08BF91F0000F4FEA8C2316
:101220004FEAC12243EA51514FEA1C5018BF00F562
:10123000F0404FEA300018BF41F000415FEA6C5CBB
:1012400000F02980BCF1FF3F08BF40F080407047AC
:10125000130C06BF12044FF0100C4FF0000C130ECD
:1012600004BF12020CF1080C130F04BF12010CF1A1
:10127000040C930F04BF92000CF1020CD30F04BFB7
:1012800052000CF1010C11464FF00002A0F11F00BA
:10129000A0EB0C00704711F0004F08BF704731F011
:1012A00000413FF4D5AF0B0C06BF09044FF0100C02
:1012B0004FF0000C0B0E04BF09020CF1080C0B0FD1
:1012C00004BF09010CF1040C8B0F04BF89000CF161
:1012D000020CCB0F04BF49000CF1010CCCF1200330
:1012E000A0EB0C0022FA03F302FA0CF241EA03012C
:1012F00000F10100704720F07F4C80EA030023F0EA
:101300007F47ACEB070303F57C5300F0004003F18B
:10131000FF032DE980494FEA154B09B44FEA144306
:1013200025EA0B4E24EA03480FF2042606EB1327A6
:1013300049083E785FEA320203FB0667C7F50007FB
:1013400007FB06F64FEA54374FEAD64606F1020687
:1013500007FB066CCCF1005C4FEA1C472CEA074CFB
:1013600007FB06F40CFB06F504EB15464FEA961650
:1013700034BF00204FF000404FEAD13706FB07FC96
:101380004FEA1C4C0CFB0BF7D21B03FB0CF761EB79
:1013900007010CFB0EF7B0EB074072EB17420CFB9A
:1013A00008F734BFA2EB0742B2EB074261EB1741EB
:1013B0004FEA0C444FEA910706FB07FC4FEA1C4C2E
:1013C0000CFB0BF7B0EBC74072EB573203FB0CF78B
:1013D00034BFA2EBC742B2EBC74261EB57310CFB03
:1013E0000EF7B0EBC70072EB57720CFB08F734BF77
:1013F000A2EBC702B2EBC70261EB5771039F4FEA42
:10140000816141EA921104EBCC044FEAD1374FEAF3
:10141000826206FB07FC42EA90124FEA80604FEAC4
:101420001C4C0CFB0BF7D21B03FB0CF761EB070109
:101430000CFB0EF7B0EB074072EB17420CFB08F702
:1014400034BFA2EB0742B2EB074261EB17414FEA10
:101450008C554FEA910704EB9C2406FB07FC4FEAEE
:101460001C4C0CFB0BF7B0EBC74072EB573203FB85
:101470000CF734BFA2EBC742B2EBC74261EB573166
:101480000CFB0EF7B0EBC70072EB57720CFB08F7C2
:1014900034BFA2EBC702B2EBC70261EB577115EB89
:1014A0004C254FEA816141EA92114FEA82624FEA8C
:1014B000D13742EA901206FB07FC44F100044FEAE0
:1014C00080604FEA1C4C0CFB0BF7D21B03FB0CF7A4
:1014D00061EB07010CFB0EF7B0EB074072EB174214
:1014E0000CFB08F734BFA2EB0742B2EB074261EBFB
:1014F000174115EB1C154FEA813141EA92414FEA41
:10150000823242EA90424FEA80304FEA0C7644F150
:10151000000448EA03434EEA0B484FF0000EB2EBDA
:10152000080C71EB030724BF624639464EEB0E0EE2
:101530004FF0000B0018524149414BEB0B0BB2EB43
:10154000080C71EB03077BF1000B24BF62463946A0
:101550004EEB0E0E4FF0000B0018524149414BEB81
:101560000B0BB2EB080C71EB03077BF1000B24BFF4
:10157000624639464EEB0E0E51EA020718BF46F09E
:10158000010616EB0E7655F1000254F1000103D569
:10159000BDE88901BDE80088BDE88901BDE80048D3
:1015A000B619524141EB0101A3F10103704780805C
:1015B0007F7E7D7C7B7A79787776767574737271AD
:1015C00071706F6E6E6D6C6C6B6A6A696868676665
:1015D00066656464636362616160605F5F5E5E5DF7
:1015E0005D5C5C5B5B5A5A5959585857575656556B
:1015F00055555454535352525251515050504F4FCD
:101600004F4E4E4D4D4D4C4C4C4B4B4B4A4A4A491C
:10161000494948484847474747464646454545445F
:101620004444444343434342424242414141002BEC
:1016300026D4770021D01CB54FEA370703B44FF00A
:1016400010004FF010014FF000000FBCBDE810403B
:101650000BF1010BBBF1010F08BF5FEA170722BFB7
:1016600012F1010211F101014FF0004143F10003B9
:1016700000F0004043EA00007047F9D35708DAE76A
:1016800046EA064613F1400F4FEA16461FDD13F1F6
:10169000200FDFBF16430A46002120335B42C8D02B
:1016A000C3F1200746EA064602FA07F74FEA164654
:1016B00046EA0706C3F1200722FA03F201FA07F708
:1016C00021FA03F14FF0000342EA0702B1E746EACC
:1016D000020646EA06464FEA164646EA0106BCBF3F
:1016E00046EA0646360C4FF000034FF000024FF07A
:1016F00000019EE72DE9C048934630B491E83800D8
:1017000007C831EA400C48BF34EA430C03D5FFF761
:10171000F2FDFFF78CFFF0BCBDE800882DE9C04862
:10172000934630B491E8380007C810F0804F08BFE6
:1017300013F0804F03D100F005F8FFF778FFF0BCFD
:10174000BDE8008820F07F4780EA030023F07F4C4B
:1017500007EB0C03A3F57C5300F00040A3F1FE035C
:1017600092F0000F00F0B38095F0000F00F077804A
:101770002DE901494FEA11404FEA144621EA004899
:1017800000FB06FC24EA064708FB06F607FB08F800
:1017900000FB07F718EB06484CEB164C4FEA124BD0
:1017A00018EB07484FEA15464CEB174022EA0B4E60
:1017B0000BFB06FC25EA06470EFB06F607FB0EFEB2
:1017C0000BFB07F71EEB064E4CEB164C4FF00006DA
:1017D0001EEB074E4CEB174B18EB0B0840F10000CB
:1017E00018EB0E0B58EB000840F100008F1A4FF079
:1017F00000013CBFC943661B14BFB5EB040C0021BC
:101800003CBFC943F61B4FEA17444EEA8E0E27EA47
:1018100004454FEA1C4704FB07622CEA074C05FB12
:1018200007F70CFB05F604FB0CFC16EB074642EB36
:10183000174216EB0C4642EB1C421BEB060658EB1C
:101840000202414146EA9E0601D5BDE80189B6196A
:10185000524141EB0101A3F10103BDE801894FEAC7
:1018600014454FEA114724EA054621EA074C05FBD7
:1018700007F406FB07F70CFB06F105FB0CFC11EB6C
:10188000074144EB17444FEA124711EB0C4144EB7C
:101890001C4422EA074C05FB07F206FB07F70CFB8A
:1018A00006F605FB0CFC16EB074642EB174216EB5F
:1018B0000C4642EB1C456A1854F1000148BF7047C2
:1018C000B619524141EB0101A3F10103704795F0B4
:1018D000000F37D04FEA11424FEA144721EA02467F
:1018E00024EA074C02FB07F106FB07F70CFB06F4A2
:1018F00002FB0CFC14EB074441EB17414FEA154780
:1019000014EB0C4441EB1C4125EA074C02FB07F5A4
:1019100006FB07F70CFB06F602FB0CFC16EB074672
:1019200045EB174516EB0C4645EB1C42121951F1DD
:10193000000148BF7047B619524141EB0101A3F1C4
:10194000010370474FEA14454FEA114724EA054660
:1019500021EA074C05FB07F106FB07F70CFB06F233
:101960004FF0000605FB0CFC12EB074241EB174160
:1019700012EB0C4251EB1C4148BF7047921841EBEF
:101980000101A3F10103704708B50121082000F00F
:10199000FBFC2020ADF8000010208DF80300032090
:1019A0008DF802006946044800F00DFA2021024833
:1019B00000F094FA08BD0000000C014000BFFEE7F3
:1019C00070B5044605E01548456B05F0450000B1CB
:1019D00000E0F8E700BF042000F066FD20B104201D
:1019E00000F05CFD032070BD012000F05DFD20B122
:1019F000012000F053FD0120F5E708480069A042EE
:101A000001D01020EFE740F2FF50044988630846F8
:101A1000406908210840C0B2E5E7000000800140AD
:101A20002DE9F04FADF21C6D05460E460020CDF8B5
:101A3000B005CDF8AC05D7A00068CDF8A805D6A1B3
:101A400003C90DF5B46203C2D5A103C90DF5B36294
:101A500003C240F29452D44901A8FEF741FEB21EDF
:101A600029460DF2B450FEF7F6FDB01E81B20DF21C
:101A7000B45001F0C5FC82464FEA2A2B0AF0FF0061
:101A8000CDF81806B01E285C58456FD1701E295C31
:101A9000DDF818068142F8D12878DA28F5D168787F
:101AA0000028F2D1A8780128EFD100271DE00024FA
:101AB0004FF0080802E008F10108641C15F808005E
:101AC00007EBC70101EB071101AA1144095D884228
:101AD00002D1B01E4045EEDCB01E404504D1B946EF
:101AE0000120CDF8AC0502E07F1C392FDFDB00BF01
:101AF000B9F1260F1AD2DFE809F0131A21282F3581
:101B00003A3E42464D545B626970777E858C939A6B
:101B1000A1A8AFB6BABEC2C6CDD4DBE2E9F3F7FBEB
:101B200001208DF8A40503208DF8A505E4E002202E
:101B30008DF8A40503208DF8A505DDE007208DF8BC
:101B4000A40503208DF8A505D6E008208DF8A4058E
:101B500003208DF8A505CFE003208DF8A4058DF8AE
:101B6000A505C9E00120CDF8B005C5E00EE13120A2
:101B70008DF8A405C0E061208DF8A405BCE0092023
:101B80008DF8A405B8E06A208DF8A40501208DF831
:101B9000A505B1E070208DF8A40501208DF8A505FC
:101BA000AAE071208DF8A40501208DF8A505A3E019
:101BB000E6208DF8A40501208DF8A5059CE0E7201E
:101BC0008DF8A40501208DF8A50595E0E8208DF895
:101BD000A40501208DF8A5058EE0E9208DF8A40567
:101BE00001208DF8A50587E0EA208DF8A4050120E5
:101BF0008DF8A50580E0EB208DF8A40501208DF877
:101C0000A50579E0EC208DF8A40501208DF8A50547
:101C100072E0ED208DF8A40501208DF8A5056BE09C
:101C2000EE208DF8A40501208DF8A50564E0EF20D5
:101C30008DF8A40501208DF8A5055DE0F0208DF854
:101C4000A40501208DF8A50556E0F1208DF8A40526
:101C500001208DF8A5054FE0F2208DF8A4050120A4
:101C60008DF8A50548E0F3208DF8A40544E0F420A4
:101C70008DF8A40540E0F5208DF8A4053CE0F620A1
:101C80008DF8A40538E0F7208DF8A40501208DF823
:101C9000A50531E0F8208DF8A40501208DF8A505F3
:101CA0002AE0F9208DF8A40501208DF8A50523E090
:101CB000FA208DF8A40501208DF8A5051CE0FB2075
:101CC0008DF8A40501208DF8A50515E0FC208DF800
:101CD000A40501208DF8A5050EE009E004E0FFE76A
:101CE000FD208DF8A40507E0FE208DF8A40503E093
:101CF000FF208DF8A40500BF00BFDDF8B005012866
:101D000012D100240DE00DF5B560015D274801F00A
:101D100020F800BF4021254800F04EFF0028F9D0F0
:101D2000641C042CEFDB31E0DDF8AC0570B300245B
:101D30000DE00DF5B460015D1C4801F00AF800BF2C
:101D400040211A4800F038FF0028F9D0641C072C05
:101D5000EFDB01F079F8142215A116A001F0ACF820
:101D60009DF8B7058DF89B0500240DE00DF5B360D7
:101D7000015D134800F0EDFF00BF4021104800F066
:101D80001BFF0028F9D0641C062CEFDB0DF21C6D44
:101D9000BDE8F08F555502075555050600010000B6
:101DA000DB000000FFFF0000C843000800380140CE
:101DB0004F4B000041542B43495053454E440000C3
:101DC0000048004070472DE9F041024600250026FA
:101DD000002000230024002791F803C00CF00F0519
:101DE00091F803C00CF0100CBCF1000F03D091F877
:101DF00002C04CEA050591F800C0BCF1000F31D0DB
:101E0000146800202BE04FF0010C0CFA00F3B1F83D
:101E100000C00CEA03069E4220D183004FF00F0C55
:101E20000CFA03F7BC4305FA03FC4CEA040491F8EE
:101E300003C0BCF1280F06D14FF0010C0CFA00FCD6
:101E4000C2F814C00AE091F803C0BCF1480F05D1F4
:101E50004FF0010C0CFA00FCC2F810C0401C08281E
:101E6000D1D31460B1F800C0BCF1FF0F34DD546869
:101E700000202EE000F1080C4FF0010808FA0CF3E6
:101E8000B1F800C00CEA03069E4221D183004FF056
:101E90000F0C0CFA03F7BC4305FA03FC4CEA0404EC
:101EA00091F803C0BCF1280F05D100F1080C08FA25
:101EB0000CF8C2F8148091F803C0BCF1480F07D1A8
:101EC00000F1080C4FF0010808FA0CF8C2F8108075
:101ED000401C0828CED35460BDE8F08141617047B2
:101EE0000161704710B500200F4908600F48006875
:101EF00020F470200D4908600846006840F4403026
:101F0000086000200A49C1F89001032001F0DCFAC2
:101F1000012005490860032001F0D6FA0020044999
:101F2000C1F88C0110BD00008C0123420018014053
:101F30000000234210B500200F4908600F480068D8
:101F400020F470200D4908600846006840F44030D5
:101F5000086001200A49C1F89001022001F0B4FA9A
:101F6000012005490860022001F0AEFA0020044972
:101F7000C1F88C0110BD00008C0123420018014003
:101F80000000234270B5054600241748006820F47D
:101F90007020154908600846006840F40020086079
:101FA000002616E0002011490860042001F08CFA98
:101FB00001200F49C1F88C016006040E0B487C38E3
:101FC000006808B1601CC4B2042001F07DFA701CE6
:101FD000C6B2082EE6DB15B9FFF7ACFF01E0FFF74C
:101FE00081FF204670BD0000001801408C01234293
:101FF0000000234270B504461848006820F47020A1
:10200000164908600846006840F440300860002027
:102010001349086000251EE0E00920B101201049A5
:10202000091D086003E000200D49091D08606006D5
:10203000040E052001F048FA012009490860052036
:1020400001F042FA00200749C1F88C01052001F097
:102050003BFA681CC5B2082DDEDB70BD00180140DC
:102060008C0123420000234210B50F48006820F481
:1020700070200D4908600846006840F44030086050
:1020800001200A4908600A49C1F88C01042001F0C6
:102090001BFA002005490860042001F015FA002011
:1020A0000349C1F88C0110BD001801409001234282
:1020B0000000234210B50F48006820F470200D493D
:1020C00008600846006840F44030086000200A4973
:1020D00008600A49C1F89001042001F0F5F90120D7
:1020E000054908600549C1F89001042001F0ECF9A8
:1020F00010BD0000001801408C0123420000234263
:1021000010B500241548006820F4702013490860B9
:102110000846006840F4002008600120104908606B
:10212000032001F0D1F901200E49C1F88C010320F0
:1021300001F0CAF907E0601CC4B2FA2C03DDFFF716
:10214000B9FF012010BD0648803800680028F2D190
:102150000349091F086000BFF4E7000000180140B0
:10216000900123420000234270B50446FFF77CFF34
:10217000E620FFF73FFFFFF7C3FF18B1FFF79AFF15
:10218000002070BD2046FFF735FFFFF7B9FFFFF7CE
:102190006BFFE720FFF72EFFFFF7B2FF0020FFF7EE
:1021A000F1FE0546FFF786FF2846EAE770B50646CA
:1021B0000C461546FFF758FFE620FFF71BFFFFF719
:1021C0009FFF18B1FFF776FF012070BD3046FFF783
:1021D00011FFFFF795FFFFF747FFE720FFF70AFF23
:1021E000FFF78EFF0DE0012C04D10020FFF7CAFE9F
:1021F000287003E00120FFF7C5FE28706D1C601EEB
:1022000084B2002CEFD1FFF755FF0020DDE710B5B9
:10221000FFF72AFFE620FFF7EDFEFFF74BFF10BDAB
:1022200070B505460C46FFF71FFFE620FFF7E2FEFC
:10223000FFF766FF18B1FFF73DFF012070BD28468C
:10224000FFF7D8FEFFF75CFF2046FFF7D3FEFFF74E
:1022500057FFFFF72FFF0020F0E7000008B501212E
:10226000402000F091F81820ADF8000010208DF803
:10227000030003208DF8020069460448FFF7A3FD20
:1022800018210248FFF72CFE08BD0000001801408D
:1022900000BFFEE708B50121802000F075F80F208F
:1022A000ADF8000004208DF8030069460148FFF7EF
:1022B0008AFD08BD001C014000BFFEE7704700001A
:1022C00070B5002100230F22C47804B3154C246894
:1022D00004F4E064C4F5E064210AC1F10403CA40D7
:1022E000447804FA03F184781440214309010E4C28
:1022F0000678A155047804F01F050124AC40057848
:102300006D11AD0005F1E025C5F8004109E0047844
:1023100004F01F050124AC40044D0678761145F801
:10232000264070BD0CED00E000E400E080E100E03C
:1023300002490143024A1160704700000000FA059B
:102340000CED00E07047000029B1064AD269024353
:10235000044BDA6104E0034AD2698243014BDA613B
:10236000704700000010024029B1064A126902437A
:10237000044B1A6104E0034A12698243014B1A615B
:10238000704700000010024029B1064A92690243DA
:10239000044B9A6104E0034A92698243014B9A61BB
:1023A000704700000010024029B1064AD26802437B
:1023B000044BDA6004E0034AD2688243014BDA60DE
:1023C000704700000010024030B5002100220024B8
:1023D00000232D4D6D6805F00C0121B1042905D0B5
:1023E000082923D105E0294D056022E0274D05602D
:1023F0001FE0254D6D6805F47012234D6D6805F4DE
:102400008034022505EB92421CB9214D55430560ED
:102410000BE01D4D6D6805F400351DB11C4D554395
:10242000056002E0194D5543056002E0174D056057
:1024300000BF00BF144D6D6805F0F0010909154D8E
:102440006B5C0568DD4045600F4D6D6805F4E0612B
:10245000090A104D6B5C4568DD4085600A4D6D686A
:1024600005F46051C90A0B4D6B5C4568DD40C560E1
:10247000054D6D6805F44041890B074D6B5CC568DF
:10248000B5FBF3F5056130BD0010024000127A0083
:1024900000093D00410000205100002001498863EF
:1024A000704700000080014001460020034A526B43
:1024B0000A400AB1012000E000207047008001407E
:1024C00010B500F017F810BD0021094B02689A60A2
:1024D0001A46D1686FF30A01D0E901231A43C36891
:1024E0001A4303691A431143014AD160704700003F
:1024F0000080014010B54948406B00F4807070B313
:1025000047480078012814D10020464908600C2073
:102510004860402088600020C8604FF480600861F7
:102520000846FFF7D1FF0C20FFF74AFA3E49087032
:1025300002E000203C4908703848806B40F480700D
:10254000364988630846C06B4CF23A3188433349B8
:10255000C8630120354908703348007810BDFFE793
:102560000220FFF7A1FF68B10220FFF797FF2B4879
:10257000C06B4CF23A3188432849C86302202A498B
:102580000870EBE70820FFF78FFF68B10820FFF71E
:1025900085FF2248C06B4CF23A3188431F49C8631B
:1025A000042021490870D9E72020FFF77DFF68B19A
:1025B0002020FFF773FF1948C06B4CF23A31884373
:1025C0001649C863062018490870C7E71020FFF7AE
:1025D0006BFF68B11020FFF761FF1048C06B4CF231
:1025E0003A3188430D49C86305200F490870B5E7A3
:1025F0004FF40070FFF758FF70B14FF40070FFF711
:102600004DFF0648C06B4CF23A3188430349C8631A
:10261000072005490870A1E700209FE700800140DE
:1026200039000020180700203A0000203B0000205D
:10263000704710B500F002F810BD00000CB5002086
:10264000019000903348006840F4803031490860C0
:1026500000BF3048006800F4003000900198401C32
:102660000190009818B90198B0F5A06FF1D12948F0
:10267000006800F4003010B10120009001E000205B
:1026800000900098012843D12348006840F01000D2
:10269000214908600846006820F0030008600846E9
:1026A000006840F0020008601A4840681949486014
:1026B0000846406848600846406840F480604860CA
:1026C0000846406820F47C1048600846406840F4A2
:1026D000E81048600846006840F08070086000BF5D
:1026E0000C48006800F000700028F9D009484068E4
:1026F00020F00300074948600846406840F00200A7
:10270000486000BF0348406800F00C000828F9D179
:102710000CBD00000010024000200240042808D137
:102720004FF0E021096941F004014FF0E02211610E
:1027300007E04FF0E021096921F004014FF0E022A9
:10274000116170477047000010B51348006840F0F1
:1027500001001149086008464068104908400E49C8
:102760004860084600680E4908400B490860084662
:10277000006820F4802008600846406820F4FE00CD
:1027800048604FF41F008860FFF753FF4FF0006070
:102790000449086010BD0000001002400000FFF86E
:1027A000FFFFF6FE08ED00E010B50121094800F03A
:1027B00054F868B10848008840F400400649088091
:1027C0000121044800F03AF80021024800F039F8ED
:1027D00010BD0000001400401E0000207FB505461B
:1027E0000C4601212020FFF7AFFDADF80450ADF8F5
:1027F00000400020ADF80600ADF8020069460E4822
:1028000000F048F8012211460B4800F037F801218A
:10281000094800F016F837208DF80C0000208DF8DC
:102820000D0002208DF80E0001208DF80F0003A886
:10283000FFF746FD7FBD000000140040CA4302823E
:10284000704721B1028842F00102028004E0028850
:102850004FF6FE731A400280704730B502460020E2
:1028600000230024158A05EA0103958905EA01047D
:1028700013B10CB1012000E0002030BD1AB18389F2
:102880000B43838102E083898B438381704781847A
:1028900070470000002202881D4B98420ED01D4B4D
:1028A00098420BD0B0F1804F08D01B4B984205D016
:1028B0001A4B984202D01A4B984204D14FF68F73AC
:1028C0001A404B881A43174B984207D0164B984230
:1028D00004D04FF6FF431A40CB881A4302808B88FE
:1028E00083850B8803850A4B98420BD0094B98428D
:1028F00008D00E4B984205D00D4B984202D00D4B9C
:10290000984201D10B7A038601238382704700002D
:10291000002C014000340140000400400008004049
:10292000000C004000100040001400400040014036
:10293000004401400048014010B540F225510948CB
:1029400000F047F960B1074800F0FEF9C4B206484C
:1029500006490978445405480078401C034908702A
:1029600010BD0000004C0040C009002040000020C5
:1029700010B540F225511D4800F02BF910B31B484B
:1029800000F0E2F9C4B21A48008800F40040C8B967
:102990001748008800F4804060B10A2C03D0002062
:1029A0001349088020E01248008840F40040104994
:1029B000088019E00D2C06D10D48008840F48040B5
:1029C0000B49088010E00A480088C0F30D0009494F
:1029D0000C5407480088401C0549088008460088B8
:1029E000C72801DD0020088010BD0000003801402C
:1029F0001C000020BC00002010B540F225511D48ED
:102A000000F0E7F810B31B4800F09EF9C4B21A4872
:102A1000008800F40040C8B91748008800F48040DE
:102A200060B10A2C03D000201349088020E012482E
:102A3000008840F400401049088019E00D2C06D1B0
:102A40000D48008840F480400B49088010E00A4897
:102A50000088C0F30D0009490C5407480088401C49
:102A60000549088008460088C72801DD0020088045
:102A700010BD00000044004020000020340600206B
:102A800010B540F22551164800F0A3F8F8B11448EB
:102A900000F05AF9C4B21348008800F40040B0B9FD
:102AA00010480088B0F5167F12DA00210E48FFF7B3
:102AB000EEFE0C48008818B901210B48FFF7C1FE53
:102AC00008490888411C074A118008490C5405E050
:102AD0000448008840F400400249088010BD00000E
:102AE000004800401E000020001400408401002027
:102AF00001F40072B2F5007F00D100BFCA4302802A
:102B0000704721B1828942F40052828104E08289B7
:102B10004DF6FF731A4082817047000010B50446DD
:102B20002048844209D101218803FFF73DFC0021A0
:102B30004FF48040FFF738FC32E01B48844209D153
:102B400001214804FFF710FC00214FF40030FFF78B
:102B50000BFC25E01548844209D101218804FFF7C8
:102B600003FC00214FF48020FFF7FEFB18E0104823
:102B7000844209D10121C804FFF7F6FB00214FF47C
:102B80000020FFF7F1FB0BE00A48844208D1012145
:102B90000805FFF7E9FB00214FF48010FFF7E4FB85
:102BA00010BD0000003801400044004000480040D3
:102BB000004C00400050004002460020B1F5007F6C
:102BC00000D100BF13880B400BB1012000E00020B2
:102BD000704770B50246002400230025002040F60F
:102BE0006A16B14200D100BFC1F3421501F01F03C4
:102BF000012606FA03F3012D02D19689334006E03F
:102C0000022D02D1168A334001E0968A33400C121D
:102C1000012606FA04F41688344013B10CB10120E1
:102C200000E0002070BDF0B503460024002600251A
:102C3000002040F66A17B94200D100BF1846C1F320
:102C4000421401F01F06012707FA06F5012C01D1F5
:102C50000C3004E0022C01D1103000E014301AB125
:102C600007682F43076002E00768AF430760F0BDC5
:102C70002DE9F04786B005460E460024A24600BF67
:102C8000A1460027B08900B100BF2F462C8A4CF620
:102C9000FF700440F08804432C82AC894EF6F31098
:102CA0000440B08831890843718908430443AC81EA
:102CB000AC8A4FF6FF400440B0890443AC8201A8BF
:102CC000FFF782FB1F48874202D1DDF810A001E028
:102CD000DDF80CA0A88900F4004040B10AEBCA005E
:102CE00000EB0A1031684900B0FBF1F807E00AEB8D
:102CF000CA0000EB0A1031688900B0FBF1F86420CB
:102D0000B8FBF0F004012009642101FB1089A889B7
:102D100000F4004040B1322000EBC900B0FBF1F0FC
:102D200000F00700044308E0322000EB09106421A2
:102D3000B0FBF1F000F00F0004432C8106B0BDE8B9
:102D4000F08700000038014001468888C0F3080081
:102D50007047C1F308028280704700BFFEE70000A1
:102D600008B501214020FFF70FFB2020ADF800003F
:102D700010208DF8030003208DF8020069460448F6
:102D8000FFF721F820210248FFF7A8F808BD00004E
:102D900000180140490050EAC12018BF04204A0D24
:102DA00018BF40F0010040F2FF72B2EB515F08BF64
:102DB00040F00200012808BF0520704730380A287B
:102DC00001D20120704700207047014600BF7047C4
:102DD00070B5044600250948008800F4004058B149
:102DE000002006490988C1F30E01054A50542146C6
:102DF0001046FDF7FFFB0546284670BD1E0000206B
:102E00008401002070B500F01FF808B1002070BDEB
:102E1000322205A105A000F04FF808A0FFF7D8FF67
:102E200005462C782046F2E73A00000041542B4337
:102E30004950535441545553000000002B4349500E
:102E40005354415455533A0010B500BF17480088F9
:102E500000F040000028F9D02B201449091D0880FB
:102E60000F2000F00BFB00BF1048008800F040006E
:102E70000028F9D02B200D49091D08800F2000F0F3
:102E8000FDFA00BF0948008800F040000028F9D092
:102E90002B200649091D08804FF4FA7000F0EEFA65
:102EA000142203A103A000F007F810BD0048004061
:102EB0004F4B0000415400002DE9F04106460D46FD
:102EC00014460027002011490880314610A000F068
:102ED000CFFEC5B1BCB10FE00A2000F0CFFA0B481D
:102EE000008800F4004038B12846FFF771FF00B1B8
:102EF00006E0002005490880601E80B2041EEBD168
:102F000000BF04B901273846BDE8F0811E0000204B
:102F100025730D0A0000000010B50024C82000F041
:102F2000ADFA27E0102001F099F8FFF78DFFC822D5
:102F300025A126A0FFF7C0FFC82000F09FFA274870
:102F40000078B8B126480078A52813D124484078E5
:102F50005A280FD12248C07883280BD12048007A04
:102F6000162807D100201D490870082001F076F8C6
:102F7000012010BD142214A11AA0FFF79DFF002804
:102F8000D0D100BF142210A117A0FFF795FF002891
:102F9000F8D1032001F062F80121052000F0FCFFC8
:102FA0000EE00A2000F06AFA00F022F8012807D1AA
:102FB000FFF74AFFC82204A104A0FFF77DFF00E04D
:102FC000EFE700BF00BFD4E74F4B000041542B4355
:102FD00049504D4F44453D30000000004000002066
:102FE000C009002041540000415445300000000059
:102FF0002DE9F04786B00025C2A103C9CDE904013F
:103000000126C24B0FCB8DE80F0040F2E737A846F0
:10301000A9462021002000F0BFFD82463222BCA13B
:10302000BCA0FFF749FF1422B9A1BDA0FFF744FFE0
:10303000781C00F023FA781C00F020FABA480078D7
:10304000E8B10020B8490870B8480078A52816D122
:10305000B64840785A2812D1B448C07883280ED197
:10306000B248007A04280AD15146002000F082FDBF
:10307000082000F0F3FF012006B0BDE8F0874FF410
:103080007A7000F0FBF94FF47A7000F0F7F9A84875
:103090000368A848A8A102685046FDF721F921E07D
:1030A000A1480078D8B100209F4908709F48007857
:1030B000A52814D19D4840785A2810D19B48C07843
:1030C00083280CD19948007A042808D15146002061
:1030D00000F050FD082000F0C1FF0120CCE70A20DD
:1030E00000F0CCF94FF4967298A15046FFF7E4FE39
:1030F0000028D5D14FF47A7000F0C0F94FF47A70FF
:1031000000F0BCF946F001060221052000F044FF62
:103110000B2000F0A3FF0221062000F03DFF8FE00E
:1031200081480078002873D0642000F0A7F97F4818
:103130000078A5287ED17D4840785A287AD17B48EE
:10314000C078832876D179488078062862D177487C
:10315000007A12280BD15146002000F00BFD002010
:1031600071490870082000F079FF012084E76F485A
:10317000007A11285ED100206B490870642000F0AD
:103180007DF90121062000F007FF142260A172A042
:10319000FFF792FE73486A4673A103685046FDF735
:1031A0009FF81EE060480078D8B100205E490870A2
:1031B0005E480078A52814D15C4840785A2810D180
:1031C0005A48C07883280CD15848007A122808D170
:1031D0005146002000F0CEFC082000F03FFF012007
:1031E0004AE7C8224AA15046FFF766FE0028D9D117
:1031F000C82247A163A0FFF75FFE642000F03EF9FC
:10320000022000F02BFF0221062000F0C5FE1DE089
:1032100013E00FE0002044490870072406E043480B
:10322000015DE01F0DF80010601CC4B23F48005D56
:10323000FF28F4D100203C490870642000F01EF9FA
:1032400006F0010000287FF46BAF00BF0020514959
:10325000088056E0781C87B20A2000F00FF94D482C
:10326000008800F4004078B14A480088C0F30E0896
:103270000020494901F80800A8F102014648FEF77C
:10328000CFFB002043490880B7F57A7F26D100277D
:10329000FFF7B8FD8146B9F12B0F03D1012000F0F3
:1032A0009FFE02E0002000F09BFEFFF7CDFD142200
:1032B00017A13AA0FFF700FE00250DE004A8415D2C
:1032C0003948FFF746FD00BF40213748FFF774FC3F
:1032D0000028F9D0681CC5B2052DEFDB1248007834
:1032E00078B11248007A13280BD15146002000F023
:1032F00041FC00200C490870082000F0AFFE0120BE
:10330000BAE6A7E7DA0003FFFF000000644A0008FE
:103310004F4B000041542B43574D4F44453D310026
:1033200041542B525354000040000020C00900209B
:10333000800000207800002041542B43574A415020
:103340003D222573222C222573220000574946492D
:1033500020474F542049500041542B4349504D556C
:10336000583D30007400002041542B4349505354C1
:103370004152543D22544350222C222573222C25A5
:103380007300000041542B4349504D4F44453D319B
:10339000000000001E0000208401002041542B4347
:1033A000495053454E4400000048004010B50120EC
:1033B000104908601DE010480078D0B1642000F08A
:1033C0005DF80E480078A52810D10C4840785A289E
:1033D0000CD10A48C078832808D10848007A2128EF
:1033E00004D1002004490870012010BD00200249CA
:1033F0000870E0E79481214240000020C0090020CD
:1034000070B502460C46FF25FF2309E012F8010BB8
:1034100080EA05010648405C80EA03050548435CF4
:10342000201EA4F10106B4B2F0D143EA052070BD1C
:10343000C8410008C842000810B56FF00400FFF74B
:103440006DF90A4800680A49B0FBF1F009490870B3
:103450000846007800EB4001C1EBC0104FF6FF7149
:1034600001EAC0000449088010BD000000000020EF
:1034700000127A0014000020160000200146114AB4
:1034800012884A434FF0E0235A6100229A611A469B
:10349000126942F001021A6100BF4FF0E022106988
:1034A00000F001021AB100F48032002AF5D04FF08A
:1034B000E022126922F001024FF0E0231A6100229B
:1034C0009A617047160000200146114A12784A435B
:1034D0004FF0E0235A6100229A611A46126942F0C5
:1034E00001021A6100BF4FF0E022106900F00102F2
:1034F0001AB100F48032002AF5D04FF0E0221269B0
:1035000022F001024FF0E0231A6100229A61704715
:103510001400002010B500F001F810BD2DE9FE43A5
:103520000024002002905EA103C9CDE9000100BF84
:1035300000BF00F04FFB0028FBD0002000F06CFB28
:1035400000240AE0584A02EB44025178564A12F825
:103550001400FEF765FE601CC4B21E2CF2D30020DE
:1035600000F05AFB4FF0000899E002AA0221432024
:10357000FEF71CFE0646002E4CD19DF808009DF873
:10358000091040EA0127002F44D0082F1BD006DC89
:10359000012F0CD0022F0ED0042F24D10FE0102FBA
:1035A00015D0202F17D0B7F5807F1CD117E0012050
:1035B0008DF804001BE002208DF8040017E00720BE
:1035C0008DF8040013E008208DF804000FE01420AB
:1035D0008DF804000BE019208DF8040007E00A20A4
:1035E0008DF8040003E000208DF8040000BF00BF48
:1035F00000240DE01DF804102C48FFF7AAFB00BFC3
:1036000040212A48FFF7D8FA0128F9D1601CC4B23A
:10361000072CEFDB2648007890B36420FFF72EFFDD
:1036200024480078A5282CD1224840785A2828D14F
:103630002048C078832824D11E48007A372820D11A
:1036400000201B49087000250DE01B48415D17480C
:10365000FFF77FFB00BF40211448FFF7ADFA0128B8
:10366000F9D1681CC5B2042DEFDB00214120FEF723
:10367000D7FD00214220FEF7D3FD0120BDE8FE83E7
:1036800002E000200A4908703220FFF7F7FE08F137
:10369000010000F0FF08B8F1640F00D148E764E7CB
:1036A00055550506000100000D4A0008003801408C
:1036B00040000020C00900202200002010B5002496
:1036C000FFF74EFBFEF7E6FD31E01948007870B3D6
:1036D0006420FFF7D3FE17480078A52824D11548A9
:1036E00040785A2820D11348C07883281CD1002064
:1036F0000F4908700F48007A312806D0322806D0CA
:1037000033280AD034280ED10AE0012010BD00F081
:10371000C7FC00200849086005E0FFF7FBFE02E057
:1037200000F058F900BF00BF002001490870CCE745
:1037300040000020C009002094012342FFF77CFED6
:103740004FF4A060FEF7F4FD4FF4165000F014FBA8
:103750004FF4165000F060FB4FF4E13000F0B4FB82
:103760004FF4E13000F0ACFAFEF70EF92CE0174808
:10377000007848B36420FFF781FE002013490870E9
:1037800013480078A5281FD1114840785A281BD12A
:103790000F48C078832817D10D48007A012804D03B
:1037A000022805D003280ED10AE0FFF7B5FB0AE096
:1037B000FFF7FCFD012802D100200649086002E065
:1037C000FFF77CFF00BF00BFD1E7000040000020F2
:1037D000C0090020948121422DE9F84300250020F2
:1037E000009000BF00BF00F0F5F90028FBD00020DA
:1037F00000F012FA00250AE06F4A02EB4502517808
:103800006D4A12F81500FEF70BFD681CC5B21E2D9F
:10381000F2D3002000F000FA4FF00008CBE06A4637
:1038200002214320FEF7C2FC0646002E7ED19DF801
:1038300000009DF8011040EA0127002F76D0012FEB
:1038400006D0022F26D0042F46D0082F6CD156E088
:103850005A480078401C5949087008460078DC280E
:1038600001DDC820087055480078554908710024CA
:103870000DE05348015D5348FFF76BFA00BF40214C
:103880005048FFF799F90128F9D1601CC4B2072C00
:10389000EFDB4AE049480078401E48490870084676
:1038A0000078C82801DADC200870444800784449D0
:1038B000087100240DE04248015D4248FFF749FAD3
:1038C00000BF40213F48FFF777F90128F9D1601C7C
:1038D000C4B2072CEFDB28E000240DE03A48015D7C
:1038E0003848FFF736FA00BF40213648FFF764F941
:1038F0000128F9D1601CC4B2042CEFDB15E00024D0
:103900000DE02F48015D2F48FFF723FA00BF40214B
:103910002C48FFF751F90128F9D1601CC4B2072CDB
:10392000EFDB02E002E0FFE700BF00BF27480078BE
:1039300090B36420FFF7A2FD25480078A5282CD17C
:10394000234840785A2828D12148C078832824D198
:103950001F48007A382820D100201C490870002414
:103960000DE01948015D1748FFF7F3F900BF40214A
:103970001448FFF721F90128F9D1601CC4B2042CC6
:10398000EFDB00214120FEF74BFC00214220FEF737
:1039900047FC0120BDE8F88302E000200B490870D5
:1039A0003220FFF76BFD08F1010000F0FF08B8F1CD
:1039B000640F00D116E732E70D4A00082700002007
:1039C0002800002000380140220000204000002094
:1039D000C009002010B5FFF7FFFE10BD2DE9F04132
:1039E00004460E461548005D38B914481838016879
:1039F000204688470120BDE8F081114850F8240096
:103A0000B04219D90F4850F82400B6FBF0F10B482A
:103A1000083850F8240030F81120002508E0002371
:103A20000648083850F824004F1920F817306D1C4C
:103A30009542F4DB0020DEE70220DCE77000002086
:103A40005C4A0008544A000810B504460C4951F875
:103A500024104A000B4951F82400002100F0B0F86E
:103A6000094951F824200749083951F82400002158
:103A700000F0A6F8012103480830015510BD0000F0
:103A80004C4A0008680000205C4A00082DE9F04715
:103A900004460F460025A9462348005D20B9224868
:103AA00018380168204688471FB94FF0FF30BDE83D
:103AB000F0871E4850F82400B7FBF0F61B4850F87A
:103AC0002400B7FBF0F100FB117000B1761C184820
:103AD00050F82400451E22E01348083850F824000E
:103AE00030F8150010B909F1010901E04FF00009A3
:103AF000B14513D14FF0000809E00B48083850F8E1
:103B0000240005EB080220F8126008F10108B04516
:103B1000F3D3064850F824006843C8E76D1E002D13
:103B2000DADA4FF0FF30C2E770000020544A000894
:103B30004C4A000810B501460023002207E00B485C
:103B400050F8210030F8120000B15B1C521C0848EC
:103B500050F821009042F2D864205843044C54F8A5
:103B60002140B0FBF4F0C0B210BD0000680000209E
:103B70004C4A000870B505460C4604B970BD0548AE
:103B800050F82500261A31462846FFF727FF00BFC8
:103B9000F4E700006000002070B504460E46314690
:103BA0002046FFF773FF0546681C08B9002070BD6A
:103BB000024850F824002844F9E700006000002083
:103BC00030B5034601E003F8011B141EA2F1010207
:103BD000F9D130BD70B5FEF741FB00F02FF8054676
:103BE0000DB9002070BD002000F016F800240AE096
:103BF000084A02EB44025178064A12F81400FEF714
:103C00000FFB601CC4B2332CF2D3002000F004F888
:103C10000120E7E76149000810B5044614B1012C02
:103C20000AD104E00021EF20FEF7FAFA04E00121B6
:103C3000EF20FEF7F5FA00BF00BF10BD10B50A2453
:103C4000FEF7E5FA0520FFF719FCFEF7E0FA05207C
:103C5000FFF714FC0020FFF7DFFF0020FEF784FAD7
:103C60000446202C01D0002010BD0120FCE70000FC
:103C70000FB438B505A800900F48009A0499FCF7D6
:103C80001DFB002000900C48FCF7C6FC85B2002408
:103C90000DE000BF40210948FEF78EFF0028F9D053
:103CA0000548015D0548FFF754F8601C84B2AC423A
:103CB000EFDB38BC5DF814FBDC030020004800405B
:103CC00010B586B0044601211020FEF75DFB0121EE
:103CD0000846FEF759FB0121C804FEF735FB4FF4F7
:103CE0008060ADF8140018208DF8170003208DF8BF
:103CF000160005A91E48FEF766F84FF40060ADF8FF
:103D0000140048208DF8170001940020ADF8080039
:103D1000ADF80A00ADF80C00ADF810000C20ADF8BD
:103D20000E0001A91348FEF7A3FF01211148FEF779
:103D3000E8FE40210F48FEF7DBFE34208DF800003E
:103D400003208DF801008DF8020001208DF803009A
:103D50006846FEF7B5FA012240F225510548FEF704
:103D600062FF01210348FEF7CCFE06B010BD000043
:103D700000100140004C004010B586B004460121FF
:103D800044F20400FEF700FB4FF40070ADF814009D
:103D900003208DF8160018208DF8170005A91C487F
:103DA000FEF711F84FF48060ADF8140004208DF890
:103DB000170005A91648FEF706F825208DF8000023
:103DC00003208DF801008DF8020001208DF803001A
:103DD0006846FEF775FA01940020ADF80800ADF8CA
:103DE0000A00ADF80C00ADF810000C20ADF80E0084
:103DF00001A90848FEF73CFF012240F22551054881
:103E0000FEF711FF01210348FEF77BFE06B010BD4F
:103E1000000801400038014010B586B00446012179
:103E20000420FEF7B1FA01214804FEF78DFA0420C0
:103E3000ADF8140018208DF8170005A92048FDF7EB
:103E4000C2FF0820ADF8140004208DF8170005A962
:103E50001B48FDF7B8FF01214804FEF785FA002151
:103E60004FF40030FEF780FA01940020ADF808000E
:103E7000ADF80A00ADF80C00ADF810000C20ADF85C
:103E80000E0001A90F48FEF7F3FE01210D48FEF7D1
:103E900038FE012240F225510A48FEF7C4FE2620D2
:103EA0008DF8000003208DF801008DF8020001203C
:103EB0008DF803006846FEF703FA06B010BD000057
:103EC000000801400044004010B586B004460121BE
:103ED0000820FEF759FA01218804FEF735FA2A482E
:103EE000FEF71CFE4FF48060ADF8100003208DF843
:103EF000120018208DF8130004A92448FDF763FF71
:103F00004FF40060ADF8100004208DF8130004A9F0
:103F10001E48FDF758FF00940020ADF80400ADF8EE
:103F20000600ADF80800ADF80C000C20ADF80A0052
:103F300069461548FEF79CFE01211348FEF7E1FD96
:103F4000012240F225511048FEF76DFE27208DF822
:103F5000140002208DF8150003208DF816000120B2
:103F60008DF8170005A8FEF7ABF941F61F4140F2A6
:103F7000E730FEF733FC00200549088000210548A2
:103F8000FEF75FFC06B010BD00480040000C014089
:103F90001E000020001400407CB505460E460DA111
:103FA00003C9CDE900018DF805508DF807600024A4
:103FB0000DE01DF804100948FEF7CBFE00BF4021BC
:103FC0000648FEF7F9FD0128F9D1601CC4B2082C9F
:103FD000EFDB7CBDA55A058200050000004C0040C7
:103FE0007FB5054618A30FCB8DE80F00012D0CD12E
:103FF000B3208DF80A00C9208DF80B00B9208DF888
:104000000C00A6208DF80D000BE0CA208DF80A00E8
:10401000A7208DF80B00B0208DF80C00DC208DF867
:104020000D0000240DE01DF804100B48FEF791FE72
:1040300000BF40210848FEF7BFFD0128F9D1601CF0
:10404000C4B2102CEFDB7FBDA55A0D820112C1ACAA
:10405000BDD300000000FFFF004C00407CB50546CA
:104060000CA103C9CDE900018DF8065000240DE034
:104070001DF804100948FEF76CFE00BF40210748F8
:10408000FEF79AFD0128F9D1601CC4B2072CEFDBC2
:104090007CBD0000A55A048003000000004C0040D5
:1040A0007CB52B4903C9CDE900010025002401207E
:1040B000284908604BE02848008800F40040B8B167
:1040C00025480088C0F30D0500240CE02348015D5D
:1040D0002348FEF73EFE00BF40212148FEF76CFD5D
:1040E0000128F9D1641CAC42F0DB00201A49088099
:1040F0001C48007858B36420FFF7C0F91A480078CC
:10410000A52821D1184840785A281DD11648C078D2
:10411000832819D11448007A362815D10020114976
:10412000087000240CE01DF804100D48FEF711FE85
:1041300000BF40210A48FEF73FFD0128F9D1641C69
:10414000042CF0DB01207CBD002006490870B2E79A
:104150005C4900089401234220000020340600201E
:104160000038014040000020C009002010B500299F
:104170000AD00878002807D005487844FCF7E2FA0E
:10418000002801D0002010BD0248784410BD000076
:104190009E0A0000960A000010B500290AD008788F
:1041A000002807D005487844FCF7CCFA002801D055
:1041B000002010BD0248784410BD00008E0A0000A7
:1041C000860A0000FCF7D0BD00C1814001C08041DB
:1041D00001C0804100C1814001C0804100C18140D7
:1041E00000C1814001C0804101C0804100C18140C7
:1041F00000C1814001C0804100C1814001C08041B7
:1042000001C0804100C1814001C0804100C18140A6
:1042100000C1814001C0804100C1814001C0804196
:1042200001C0804100C1814000C1814001C0804186
:1042300001C0804100C1814001C0804100C1814076
:1042400000C1814001C0804101C0804100C1814066
:1042500000C1814001C0804100C1814001C0804156
:1042600001C0804100C1814000C1814001C0804146
:1042700001C0804100C1814001C0804100C1814036
:1042800000C1814001C0804100C1814001C0804126
:1042900001C0804100C1814001C0804100C1814016
:1042A00000C1814001C0804101C0804100C1814006
:1042B00000C1814001C0804100C1814001C08041F6
:1042C00001C0804100C1814000C0C101C30302C2DE
:1042D000C60607C705C5C404CC0C0DCD0FCFCE0E46
:1042E0000ACACB0BC90908C8D81819D91BDBDA1AB6
:1042F0001EDEDF1FDD1D1CDC14D4D515D71716D626
:10430000D21213D311D1D010F03031F133F3F23295
:1043100036F6F737F53534F43CFCFD3DFF3F3EFE05
:10432000FA3A3BFB39F9F83828E8E929EB2B2AEA75
:10433000EE2E2FEF2DEDEC2CE42425E527E7E626E5
:1043400022E2E323E12120E0A06061A163A3A26255
:1043500066A6A767A56564A46CACAD6DAF6F6EAEC5
:10436000AA6A6BAB69A9A86878B8B979BB7B7ABA35
:10437000BE7E7FBF7DBDBC7CB47475B577B7B676A5
:1043800072B2B373B17170B0509091519353529215
:1043900096565797559594549C5C5D9D5F9F9E5E85
:1043A0005A9A9B5B99595898884849894B8B8A4AF5
:1043B0004E8E8F4F8D4D4C8C448485458747468665
:1043C00082424383418180407B22616374696F6EC6
:1043D000223A22666F7277617264227D00000000CB
:1043E000007B22616374696F6E223A226261636BA3
:1043F00077617264227D000000007B226163746932
:104400006F6E223A226C656674227D000000000007
:104410000000007B22616374696F6E223A22726928
:10442000676874227D000000000000007B22616349
:1044300074696F6E223A22726F74617465227D0016
:1044400000000000007B22616374696F6E223A22D3
:1044500073746F70227D00000000000000007B225A
:10446000616374696F6E223A22696E74726F64754B
:104470006365227D0000007B22616374696F6E2298
:104480003A22706C6179227D00000000000000007B
:104490007B22616374696F6E223A2264616E636588
:1044A000227D000000000000007B22616374696FC0
:1044B0006E223A22616374696F6E67726F75703134
:1044C000227D7B22616374696F6E223A226163747C
:1044D000696F6E67726F757032227D7B22616374C3
:1044E000696F6E223A22616374696F6E67726F75CD
:1044F0007033227D7B22616374696F6E223A226180
:1045000031227D000000000000000000007B2261DD
:104510006374696F6E223A226132227D00000000CE
:104520000000000000007B22616374696F6E223A14
:10453000226133227D000000000000000000007BAB
:1045400022616374696F6E223A226134227D000019
:1045500000000000000000007B22616374696F6E40
:10456000223A226135227D00000000000000000098
:10457000007B22616374696F6E223A226136227D6C
:10458000000000000000000000007B2261637469ED
:104590006F6E223A226137227D0000000000000089
:1045A0000000007B22616374696F6E223A226138D9
:1045B000227D000000000000000000007B226163FB
:1045C00074696F6E223A226139227D00000000007A
:1045D00000000000007B22616374696F6E223A2242
:1045E000613130227D0000000000000000007B22CD
:1045F000616374696F6E223A22613131227D00005D
:10460000000000000000007B22616374696F6E226D
:104610003A22613132227D000000000000000000DB
:104620007B22616374696F6E223A22613133227D8D
:104630000000000000000000007B22616374696FCD
:104640006E223A22613134227D0000000000000019
:1046500000007B22616374696F6E223A22613135FA
:10466000227D0000000000000000007B22616374D6
:10467000696F6E223A22613136227D00000000000F
:10468000000000007B22616374696F6E223A226130
:104690003137227D0000000000000000007B226115
:1046A0006374696F6E223A22613138227D00000006
:1046B0000000000000007B22616374696F6E223A83
:1046C00022613139227D0000000000000000007BE3
:1046D00022616374696F6E223A22613230227D005A
:1046E00000000000000000007B22616374696F6EAF
:1046F000223A22613231227D0000000000000000D9
:10470000007B22616374696F6E223A226132322229
:104710007D0000000000000000007B2261637469DE
:104720006F6E223A22613233227D000000000000C9
:104730000000007B22616374696F6E223A2261324D
:1047400034227D0000000000000000007B22616335
:1047500074696F6E223A22613235227D00000000BA
:1047600000000000007B22616374696F6E223A22B0
:10477000613236227D0000000000000000007B2234
:10478000616374696F6E223A22613237227D0000C4
:10479000000000000000007B22616374696F6E22DC
:1047A0003A22613238227D00000000000000000043
:1047B0007B22616374696F6E223A22613239227DF5
:1047C0000000000000000000007B22616374696F3C
:1047D0006E223A22613330227D000000000000008A
:1047E00000007B22616374696F6E223A226133316B
:1047F000227D0000000000000000007B2261637445
:10480000696F6E223A22613332227D00000000007F
:10481000000000007B22616374696F6E223A22619E
:104820003333227D0000000000000000007B226185
:104830006374696F6E223A22613334227D00000076
:104840000000000000007B22616374696F6E223AF1
:1048500022613335227D0000000000000000007B53
:1048600022616374696F6E223A22613336227D00C1
:1048700000000000000000007B22616374696F6E1D
:10488000223A22613337227D000000000000000040
:10489000007B22616374696F6E223A226133382291
:1048A0007D0000000000000000007B22616374694D
:1048B0006F6E223A22613339227D00000000000031
:1048C0000000007B22616374696F6E223A226134BA
:1048D00030227D0000000000000000007B226163A8
:1048E00074696F6E223A22613431227D000000002B
:1048F00000000000007B22616374696F6E223A221F
:10490000613432227D0000000000000000007B22A4
:10491000616374696F6E223A22613433227D000034
:10492000000000000000007B22616374696F6E224A
:104930003A22613434227D000000000000000000B3
:104940007B22616374696F6E223A22613435227D65
:1049500000000000000000000000000055550207A4
:1049600000EF0037073817390641004200462D474F
:104970000F483C49004A1E4C2051105E10602780B1
:1049800042814482048B019006950A960C97059A01
:10499000149C3FA519CC19CD0BCE13CF64D021EFB9
:1049A00001020F0310040225012739287F29083E40
:1049B000FF5E3D6596679769CD6A016D2C6E017249
:1049C00001733574007701EF0041004200483C4913
:1049D0000051138320842085008610870088058974
:1049E000188A109FF869966A02EF01011E020F03F0
:1049F0001004024150433465CE660B67CE680B69E4
:104A0000E96A056B506CC36D506EC37405EF0041CD
:104A1000004200EF00483C4900511083209FF9EF0D
:104A200001011E020F0310040241404330659666E7
:104A3000006797680169CD6A016BB06C046D2C6EDC
:104A4000017400EF0041FF4201000000000500007A
:104A500000780000200000002000000000A00000FE
:104A600000000F0034352E34332E3232322E3131E5
:104A70003000000030313233343536373839414276
:104A800043444546403058003031323334353637B0
:104A9000383961626364656640307800040000085C
:104AA00000000000000000020001000010000000F3
:104AB000000000000000000002400000000000A014
:104AC0000000000005400000000000C800000000D9
:104AD0000C4000000000409C000000001940000055
:104AE0000020BCBE0000000034400000BFC91B8E87
:104AF00000000004B5400000504BCFD06607E2CF65
:104B0000010000006C4100003E8251AADFEEA73494
:104B100001000000D9420000DCB5A0E23A301F9746
:104B2000FFFFFFFFB4450000FD25A0C8E9A3C14F6A
:104B3000FFFFFFFFFF3F00000000008000000000BB
:104B4000FF3F00000000008000000000415026539D
:104B50005441C4A3CABD2000535441C4A3CABD20BC
:104B6000000000004150C4A3CABD200038303836D0
:104B70000000000031323334353637380000000091
:104B80003838383838383838000000004141414161
:104B900000000000575041325F50534B00000000AE
:104BA0005750415F574150325F50534B0000000057
:104BB0005750415F50534B004F50454E000000008E
:104BC00057455000777061777061325F616573009F
:104BD0006C7978002055445020C4A3CABD00000061
:104BE000544350BFCDBBA7B6CB000000544350B7D1
:104BF000FECEF1C6F7000000444D00080000002082
:104C0000BC0000006C010008004E0008BC00002041
:104C1000A4B90000880100081C0000004300000047
:104C2000F8FFFFFF0C0000000E0000000F00000066
:104C30002E0000001001000043000000F8FFFFFFFD
:104C4000004040404040404040404141414141409F
:104C50004040404040404040404040404040404054
:104C600040050202020202020202020202020202E3
:104C700002202020202020202020200202020202E8
:104C80000202909090909090101010101010101040
:104C9000101010101010101010101010020202024C
:104CA0000202888888888888080808080808080890
:104CB000080808080808080808080808020202028C
:104CC00040000000000000000000000000000000A4
:104CD00000000000000000000000000000000000D4
:104CE00000000000000000000000000000000000C4
:104CF00000000000000000000000000000000000B4
:104D000000000000000000000000000000000000A3
:104D10000000000000000000000000000000000093
:104D20000000000000000000000000000000000083
:104D30000000000000000000000000000000000073
:104D40000000000000A24A04000000000000000073
:104D5000010203040607080900000000000000002B
:104D60000000000000005555020700C85555050613
:104D70000001000000000000000000000100000031
:104D80000000000000000000000102030401020313
:104D9000040607080902040608000000493A000852
:104DA000353B0008000A00200000006800AA00202F
:104DB00000000F68000000006C4B00088C4B0008DE
:104DC000C44B0008804B0008D04B0008C44B0008BF
:104DD000744B0008584B0008644B00084C4B00080B
:104DE000EC4B0008E04B0008D44B0008B84B00081F
:104DF000C04B0008B04B0008944B0008A04B0008C3
:0400000508000131BD
:00000001FF
